{
  "contractName": "BridgeA",
  "abi": [
    {
      "inputs": [
        {
          "internalType": "address",
          "name": "_token",
          "type": "address"
        }
      ],
      "stateMutability": "nonpayable",
      "type": "constructor"
    },
    {
      "anonymous": false,
      "inputs": [
        {
          "indexed": true,
          "internalType": "address",
          "name": "previousOwner",
          "type": "address"
        },
        {
          "indexed": true,
          "internalType": "address",
          "name": "newOwner",
          "type": "address"
        }
      ],
      "name": "OwnershipTransferred",
      "type": "event"
    },
    {
      "anonymous": false,
      "inputs": [
        {
          "indexed": true,
          "internalType": "address",
          "name": "from",
          "type": "address"
        },
        {
          "indexed": false,
          "internalType": "uint256",
          "name": "amount",
          "type": "uint256"
        }
      ],
      "name": "TokensLocked",
      "type": "event"
    },
    {
      "inputs": [],
      "name": "counterpartBridge",
      "outputs": [
        {
          "internalType": "address",
          "name": "",
          "type": "address"
        }
      ],
      "stateMutability": "view",
      "type": "function",
      "constant": true
    },
    {
      "inputs": [],
      "name": "owner",
      "outputs": [
        {
          "internalType": "address",
          "name": "",
          "type": "address"
        }
      ],
      "stateMutability": "view",
      "type": "function",
      "constant": true
    },
    {
      "inputs": [],
      "name": "renounceOwnership",
      "outputs": [],
      "stateMutability": "nonpayable",
      "type": "function"
    },
    {
      "inputs": [],
      "name": "token",
      "outputs": [
        {
          "internalType": "contract IERC20",
          "name": "",
          "type": "address"
        }
      ],
      "stateMutability": "view",
      "type": "function",
      "constant": true
    },
    {
      "inputs": [
        {
          "internalType": "address",
          "name": "newOwner",
          "type": "address"
        }
      ],
      "name": "transferOwnership",
      "outputs": [],
      "stateMutability": "nonpayable",
      "type": "function"
    },
    {
      "inputs": [
        {
          "internalType": "address",
          "name": "_counterpartBridge",
          "type": "address"
        }
      ],
      "name": "setCounterpartBridge",
      "outputs": [],
      "stateMutability": "nonpayable",
      "type": "function"
    },
    {
      "inputs": [
        {
          "internalType": "uint256",
          "name": "amount",
          "type": "uint256"
        }
      ],
      "name": "lockTokens",
      "outputs": [],
      "stateMutability": "nonpayable",
      "type": "function"
    },
    {
      "inputs": [
        {
          "internalType": "address",
          "name": "to",
          "type": "address"
        },
        {
          "internalType": "uint256",
          "name": "amount",
          "type": "uint256"
        }
      ],
      "name": "releaseTokens",
      "outputs": [],
      "stateMutability": "nonpayable",
      "type": "function"
    }
  ],
  "bytecode": "0x608060405234801561001057600080fd5b50604051610c8f380380610c8f833981810160405281019061003291906101c4565b61004e61004361009560201b60201c565b61009d60201b60201c565b80600160006101000a81548173ffffffffffffffffffffffffffffffffffffffff021916908373ffffffffffffffffffffffffffffffffffffffff160217905550506101f1565b600033905090565b60008060009054906101000a900473ffffffffffffffffffffffffffffffffffffffff169050816000806101000a81548173ffffffffffffffffffffffffffffffffffffffff021916908373ffffffffffffffffffffffffffffffffffffffff1602179055508173ffffffffffffffffffffffffffffffffffffffff168173ffffffffffffffffffffffffffffffffffffffff167f8be0079c531659141344cd1fd0a4f28419497f9722a3daafe3b4186f6b6457e060405160405180910390a35050565b600080fd5b600073ffffffffffffffffffffffffffffffffffffffff82169050919050565b600061019182610166565b9050919050565b6101a181610186565b81146101ac57600080fd5b50565b6000815190506101be81610198565b92915050565b6000602082840312156101da576101d9610161565b5b60006101e8848285016101af565b91505092915050565b610a8f806102006000396000f3fe608060405234801561001057600080fd5b50600436106100885760003560e01c8063af0bc79a1161005b578063af0bc79a146100ef578063f2fde38b1461010b578063f40d71f114610127578063fc0c546a1461014357610088565b80633a3485331461008d5780636e27d889146100ab578063715018a6146100c75780638da5cb5b146100d1575b600080fd5b610095610161565b6040516100a29190610659565b60405180910390f35b6100c560048036038101906100c091906106af565b610187565b005b6100cf6102b9565b005b6100d96102cd565b6040516100e69190610659565b60405180910390f35b61010960048036038101906101049190610708565b6102f6565b005b61012560048036038101906101209190610708565b610342565b005b610141600480360381019061013c9190610735565b6103c5565b005b61014b6104a8565b60405161015891906107d4565b60405180910390f35b600260009054906101000a900473ffffffffffffffffffffffffffffffffffffffff1681565b600160009054906101000a900473ffffffffffffffffffffffffffffffffffffffff1673ffffffffffffffffffffffffffffffffffffffff166323b872dd3330846040518463ffffffff1660e01b81526004016101e6939291906107fe565b6020604051808303816000875af1158015610205573d6000803e3d6000fd5b505050506040513d601f19601f82011682018060405250810190610229919061086d565b610268576040517f08c379a000000000000000000000000000000000000000000000000000000000815260040161025f906108f7565b60405180910390fd5b3373ffffffffffffffffffffffffffffffffffffffff167fac87f20a77d28ee8bbb58ec87ea8fa968b3393efae1a368fd50b767c2847391c826040516102ae9190610917565b60405180910390a250565b6102c16104ce565b6102cb600061054c565b565b60008060009054906101000a900473ffffffffffffffffffffffffffffffffffffffff16905090565b6102fe6104ce565b80600260006101000a81548173ffffffffffffffffffffffffffffffffffffffff021916908373ffffffffffffffffffffffffffffffffffffffff16021790555050565b61034a6104ce565b600073ffffffffffffffffffffffffffffffffffffffff168173ffffffffffffffffffffffffffffffffffffffff16036103b9576040517f08c379a00000000000000000000000000000000000000000000000000000000081526004016103b0906109a4565b60405180910390fd5b6103c28161054c565b50565b600160009054906101000a900473ffffffffffffffffffffffffffffffffffffffff1673ffffffffffffffffffffffffffffffffffffffff1663a9059cbb83836040518363ffffffff1660e01b81526004016104229291906109c4565b6020604051808303816000875af1158015610441573d6000803e3d6000fd5b505050506040513d601f19601f82011682018060405250810190610465919061086d565b6104a4576040517f08c379a000000000000000000000000000000000000000000000000000000000815260040161049b906108f7565b60405180910390fd5b5050565b600160009054906101000a900473ffffffffffffffffffffffffffffffffffffffff1681565b6104d6610610565b73ffffffffffffffffffffffffffffffffffffffff166104f46102cd565b73ffffffffffffffffffffffffffffffffffffffff161461054a576040517f08c379a000000000000000000000000000000000000000000000000000000000815260040161054190610a39565b60405180910390fd5b565b60008060009054906101000a900473ffffffffffffffffffffffffffffffffffffffff169050816000806101000a81548173ffffffffffffffffffffffffffffffffffffffff021916908373ffffffffffffffffffffffffffffffffffffffff1602179055508173ffffffffffffffffffffffffffffffffffffffff168173ffffffffffffffffffffffffffffffffffffffff167f8be0079c531659141344cd1fd0a4f28419497f9722a3daafe3b4186f6b6457e060405160405180910390a35050565b600033905090565b600073ffffffffffffffffffffffffffffffffffffffff82169050919050565b600061064382610618565b9050919050565b61065381610638565b82525050565b600060208201905061066e600083018461064a565b92915050565b600080fd5b6000819050919050565b61068c81610679565b811461069757600080fd5b50565b6000813590506106a981610683565b92915050565b6000602082840312156106c5576106c4610674565b5b60006106d38482850161069a565b91505092915050565b6106e581610638565b81146106f057600080fd5b50565b600081359050610702816106dc565b92915050565b60006020828403121561071e5761071d610674565b5b600061072c848285016106f3565b91505092915050565b6000806040838503121561074c5761074b610674565b5b600061075a858286016106f3565b925050602061076b8582860161069a565b9150509250929050565b6000819050919050565b600061079a61079561079084610618565b610775565b610618565b9050919050565b60006107ac8261077f565b9050919050565b60006107be826107a1565b9050919050565b6107ce816107b3565b82525050565b60006020820190506107e960008301846107c5565b92915050565b6107f881610679565b82525050565b6000606082019050610813600083018661064a565b610820602083018561064a565b61082d60408301846107ef565b949350505050565b60008115159050919050565b61084a81610835565b811461085557600080fd5b50565b60008151905061086781610841565b92915050565b60006020828403121561088357610882610674565b5b600061089184828501610858565b91505092915050565b600082825260208201905092915050565b7f5472616e73666572206661696c65640000000000000000000000000000000000600082015250565b60006108e1600f8361089a565b91506108ec826108ab565b602082019050919050565b60006020820190508181036000830152610910816108d4565b9050919050565b600060208201905061092c60008301846107ef565b92915050565b7f4f776e61626c653a206e6577206f776e657220697320746865207a65726f206160008201527f6464726573730000000000000000000000000000000000000000000000000000602082015250565b600061098e60268361089a565b915061099982610932565b604082019050919050565b600060208201905081810360008301526109bd81610981565b9050919050565b60006040820190506109d9600083018561064a565b6109e660208301846107ef565b9392505050565b7f4f776e61626c653a2063616c6c6572206973206e6f7420746865206f776e6572600082015250565b6000610a2360208361089a565b9150610a2e826109ed565b602082019050919050565b60006020820190508181036000830152610a5281610a16565b905091905056fea26469706673582212207bca32b78a71e51243f883019f71e01e9576de59e48ad4ff39baaddd7fd26e1d64736f6c634300080d0033",
  "immutableReferences": {},
  "source": "// SPDX-License-Identifier: MIT\r\npragma solidity ^0.8.0;\r\n\r\nimport \"@openzeppelin/contracts/token/ERC20/IERC20.sol\";\r\nimport \"@openzeppelin/contracts/access/Ownable.sol\";\r\n\r\ncontract BridgeA is Ownable {\r\n    IERC20 public token;\r\n    address public counterpartBridge;\r\n\r\n    // Event to notify that tokens are locked and can be processed by the off-chain script\r\n    event TokensLocked(address indexed from, uint256 amount);\r\n\r\n    constructor(address _token) {\r\n        token = IERC20(_token);\r\n    }\r\n\r\n    function setCounterpartBridge(address _counterpartBridge)\r\n        external\r\n        onlyOwner\r\n    {\r\n        counterpartBridge = _counterpartBridge;\r\n    }\r\n\r\n    function lockTokens(uint256 amount) external {\r\n        require(\r\n            token.transferFrom(msg.sender, address(this), amount),\r\n            \"Transfer failed\"\r\n        );\r\n        emit TokensLocked(msg.sender, amount); // Emitting event after locking tokens\r\n    }\r\n\r\n    function releaseTokens(address to, uint256 amount) external {\r\n        // require(msg.sender == counterpartBridge, \"Only counterpart bridge can release tokens\");\r\n        require(token.transfer(to, amount), \"Transfer failed\");\r\n    }\r\n}\r\n",
  "sourcePath": "C:\\Users\\shaan\\Documents\\bcdv4028\\contracts\\BridgeA.sol",
  "compiler": {
    "name": "solc",
    "version": "0.8.13+commit.abaa5c0e.Emscripten.clang"
  },
  "schemaVersion": "3.4.16",
  "updatedAt": "2023-10-02T18:18:58.579Z",
  "networkType": "ethereum",
  "devdoc": {
    "kind": "dev",
    "methods": {
      "owner()": {
        "details": "Returns the address of the current owner."
      },
      "renounceOwnership()": {
        "details": "Leaves the contract without owner. It will not be possible to call `onlyOwner` functions anymore. Can only be called by the current owner. NOTE: Renouncing ownership will leave the contract without an owner, thereby removing any functionality that is only available to the owner."
      },
      "transferOwnership(address)": {
        "details": "Transfers ownership of the contract to a new account (`newOwner`). Can only be called by the current owner."
      }
    },
    "version": 1
  },
  "userdoc": {
    "kind": "user",
    "methods": {},
    "version": 1
  }
}