{
  "contractName": "BridgeB",
  "abi": [
    {
      "inputs": [
        {
          "internalType": "address",
          "name": "_token",
          "type": "address"
        }
      ],
      "stateMutability": "nonpayable",
      "type": "constructor"
    },
    {
      "anonymous": false,
      "inputs": [
        {
          "indexed": true,
          "internalType": "address",
          "name": "previousOwner",
          "type": "address"
        },
        {
          "indexed": true,
          "internalType": "address",
          "name": "newOwner",
          "type": "address"
        }
      ],
      "name": "OwnershipTransferred",
      "type": "event"
    },
    {
      "anonymous": false,
      "inputs": [
        {
          "indexed": true,
          "internalType": "address",
          "name": "to",
          "type": "address"
        },
        {
          "indexed": false,
          "internalType": "uint256",
          "name": "amount",
          "type": "uint256"
        }
      ],
      "name": "TokensReleased",
      "type": "event"
    },
    {
      "inputs": [],
      "name": "counterpartBridge",
      "outputs": [
        {
          "internalType": "address",
          "name": "",
          "type": "address"
        }
      ],
      "stateMutability": "view",
      "type": "function"
    },
    {
      "inputs": [],
      "name": "owner",
      "outputs": [
        {
          "internalType": "address",
          "name": "",
          "type": "address"
        }
      ],
      "stateMutability": "view",
      "type": "function"
    },
    {
      "inputs": [],
      "name": "renounceOwnership",
      "outputs": [],
      "stateMutability": "nonpayable",
      "type": "function"
    },
    {
      "inputs": [],
      "name": "token",
      "outputs": [
        {
          "internalType": "contract TokenB",
          "name": "",
          "type": "address"
        }
      ],
      "stateMutability": "view",
      "type": "function"
    },
    {
      "inputs": [
        {
          "internalType": "address",
          "name": "newOwner",
          "type": "address"
        }
      ],
      "name": "transferOwnership",
      "outputs": [],
      "stateMutability": "nonpayable",
      "type": "function"
    },
    {
      "inputs": [
        {
          "internalType": "address",
          "name": "_counterpartBridge",
          "type": "address"
        }
      ],
      "name": "setCounterpartBridge",
      "outputs": [],
      "stateMutability": "nonpayable",
      "type": "function"
    },
    {
      "inputs": [
        {
          "internalType": "address",
          "name": "to",
          "type": "address"
        },
        {
          "internalType": "uint256",
          "name": "amount",
          "type": "uint256"
        }
      ],
      "name": "releaseTokens",
      "outputs": [],
      "stateMutability": "nonpayable",
      "type": "function"
    }
  ],
  "bytecode": "0x608060405234801561001057600080fd5b506040516109ff3803806109ff833981810160405281019061003291906101c4565b61004e61004361009560201b60201c565b61009d60201b60201c565b80600160006101000a81548173ffffffffffffffffffffffffffffffffffffffff021916908373ffffffffffffffffffffffffffffffffffffffff160217905550506101f1565b600033905090565b60008060009054906101000a900473ffffffffffffffffffffffffffffffffffffffff169050816000806101000a81548173ffffffffffffffffffffffffffffffffffffffff021916908373ffffffffffffffffffffffffffffffffffffffff1602179055508173ffffffffffffffffffffffffffffffffffffffff168173ffffffffffffffffffffffffffffffffffffffff167f8be0079c531659141344cd1fd0a4f28419497f9722a3daafe3b4186f6b6457e060405160405180910390a35050565b600080fd5b600073ffffffffffffffffffffffffffffffffffffffff82169050919050565b600061019182610166565b9050919050565b6101a181610186565b81146101ac57600080fd5b50565b6000815190506101be81610198565b92915050565b6000602082840312156101da576101d9610161565b5b60006101e8848285016101af565b91505092915050565b6107ff806102006000396000f3fe608060405234801561001057600080fd5b506004361061007d5760003560e01c8063af0bc79a1161005b578063af0bc79a146100c8578063f2fde38b146100e4578063f40d71f114610100578063fc0c546a1461011c5761007d565b80633a34853314610082578063715018a6146100a05780638da5cb5b146100aa575b600080fd5b61008a61013a565b60405161009791906104fe565b60405180910390f35b6100a8610160565b005b6100b2610174565b6040516100bf91906104fe565b60405180910390f35b6100e260048036038101906100dd919061054a565b61019d565b005b6100fe60048036038101906100f9919061054a565b6101e9565b005b61011a600480360381019061011591906105ad565b61026c565b005b61012461034d565b604051610131919061064c565b60405180910390f35b600260009054906101000a900473ffffffffffffffffffffffffffffffffffffffff1681565b610168610373565b61017260006103f1565b565b60008060009054906101000a900473ffffffffffffffffffffffffffffffffffffffff16905090565b6101a5610373565b80600260006101000a81548173ffffffffffffffffffffffffffffffffffffffff021916908373ffffffffffffffffffffffffffffffffffffffff16021790555050565b6101f1610373565b600073ffffffffffffffffffffffffffffffffffffffff168173ffffffffffffffffffffffffffffffffffffffff1603610260576040517f08c379a0000000000000000000000000000000000000000000000000000000008152600401610257906106ea565b60405180910390fd5b610269816103f1565b50565b600160009054906101000a900473ffffffffffffffffffffffffffffffffffffffff1673ffffffffffffffffffffffffffffffffffffffff166340c10f1983836040518363ffffffff1660e01b81526004016102c9929190610719565b600060405180830381600087803b1580156102e357600080fd5b505af11580156102f7573d6000803e3d6000fd5b505050508173ffffffffffffffffffffffffffffffffffffffff167fc7798891864187665ac6dd119286e44ec13f014527aeeb2b8eb3fd413df93179826040516103419190610742565b60405180910390a25050565b600160009054906101000a900473ffffffffffffffffffffffffffffffffffffffff1681565b61037b6104b5565b73ffffffffffffffffffffffffffffffffffffffff16610399610174565b73ffffffffffffffffffffffffffffffffffffffff16146103ef576040517f08c379a00000000000000000000000000000000000000000000000000000000081526004016103e6906107a9565b60405180910390fd5b565b60008060009054906101000a900473ffffffffffffffffffffffffffffffffffffffff169050816000806101000a81548173ffffffffffffffffffffffffffffffffffffffff021916908373ffffffffffffffffffffffffffffffffffffffff1602179055508173ffffffffffffffffffffffffffffffffffffffff168173ffffffffffffffffffffffffffffffffffffffff167f8be0079c531659141344cd1fd0a4f28419497f9722a3daafe3b4186f6b6457e060405160405180910390a35050565b600033905090565b600073ffffffffffffffffffffffffffffffffffffffff82169050919050565b60006104e8826104bd565b9050919050565b6104f8816104dd565b82525050565b600060208201905061051360008301846104ef565b92915050565b600080fd5b610527816104dd565b811461053257600080fd5b50565b6000813590506105448161051e565b92915050565b6000602082840312156105605761055f610519565b5b600061056e84828501610535565b91505092915050565b6000819050919050565b61058a81610577565b811461059557600080fd5b50565b6000813590506105a781610581565b92915050565b600080604083850312156105c4576105c3610519565b5b60006105d285828601610535565b92505060206105e385828601610598565b9150509250929050565b6000819050919050565b600061061261060d610608846104bd565b6105ed565b6104bd565b9050919050565b6000610624826105f7565b9050919050565b600061063682610619565b9050919050565b6106468161062b565b82525050565b6000602082019050610661600083018461063d565b92915050565b600082825260208201905092915050565b7f4f776e61626c653a206e6577206f776e657220697320746865207a65726f206160008201527f6464726573730000000000000000000000000000000000000000000000000000602082015250565b60006106d4602683610667565b91506106df82610678565b604082019050919050565b60006020820190508181036000830152610703816106c7565b9050919050565b61071381610577565b82525050565b600060408201905061072e60008301856104ef565b61073b602083018461070a565b9392505050565b6000602082019050610757600083018461070a565b92915050565b7f4f776e61626c653a2063616c6c6572206973206e6f7420746865206f776e6572600082015250565b6000610793602083610667565b915061079e8261075d565b602082019050919050565b600060208201905081810360008301526107c281610786565b905091905056fea26469706673582212203817197e2368fd7032b1f1c36ab0e15bc1cb15a4fb8324b7264b223a23d5a03564736f6c634300080d0033",
  "immutableReferences": {},
  "source": "// SPDX-License-Identifier: MIT\r\npragma solidity ^0.8.0;\r\n\r\nimport \"./TokenB.sol\";\r\nimport \"@openzeppelin/contracts/access/Ownable.sol\";\r\n\r\ncontract BridgeB is Ownable {\r\n    TokenB public token;\r\n    address public counterpartBridge;\r\n\r\n    event TokensReleased(address indexed to, uint256 amount);\r\n\r\n    constructor(address _token) {\r\n        token = TokenB(_token);\r\n    }\r\n\r\n    function setCounterpartBridge(address _counterpartBridge)\r\n        external\r\n        onlyOwner\r\n    {\r\n        counterpartBridge = _counterpartBridge;\r\n    }\r\n\r\n    function releaseTokens(address to, uint256 amount) external {\r\n        // require(msg.sender == counterpartBridge, \"Only counterpart bridge can release tokens\");\r\n        token.mint(to, amount); // Call the mint function of TokenB\r\n        emit TokensReleased(to, amount);\r\n    }\r\n}\r\n",
  "sourcePath": "C:\\Users\\shaan\\Documents\\bcdv4028\\contracts\\BridgeB.sol",
  "compiler": {
    "name": "solc",
    "version": "0.8.13+commit.abaa5c0e.Emscripten.clang"
  },
  "schemaVersion": "3.4.16",
  "updatedAt": "2023-10-02T18:18:58.596Z",
  "networkType": "ethereum",
  "devdoc": {
    "kind": "dev",
    "methods": {
      "owner()": {
        "details": "Returns the address of the current owner."
      },
      "renounceOwnership()": {
        "details": "Leaves the contract without owner. It will not be possible to call `onlyOwner` functions anymore. Can only be called by the current owner. NOTE: Renouncing ownership will leave the contract without an owner, thereby removing any functionality that is only available to the owner."
      },
      "transferOwnership(address)": {
        "details": "Transfers ownership of the contract to a new account (`newOwner`). Can only be called by the current owner."
      }
    },
    "version": 1
  },
  "userdoc": {
    "kind": "user",
    "methods": {},
    "version": 1
  }
}