{
  "contractName": "LendingContract",
  "abi": [
    {
      "inputs": [],
      "stateMutability": "nonpayable",
      "type": "constructor"
    },
    {
      "inputs": [
        {
          "internalType": "address",
          "name": "",
          "type": "address"
        }
      ],
      "name": "balances",
      "outputs": [
        {
          "internalType": "uint256",
          "name": "",
          "type": "uint256"
        }
      ],
      "stateMutability": "view",
      "type": "function"
    },
    {
      "inputs": [
        {
          "internalType": "address",
          "name": "",
          "type": "address"
        }
      ],
      "name": "loans",
      "outputs": [
        {
          "internalType": "uint256",
          "name": "",
          "type": "uint256"
        }
      ],
      "stateMutability": "view",
      "type": "function"
    },
    {
      "inputs": [],
      "name": "owner",
      "outputs": [
        {
          "internalType": "address",
          "name": "",
          "type": "address"
        }
      ],
      "stateMutability": "view",
      "type": "function"
    },
    {
      "inputs": [],
      "name": "deposit",
      "outputs": [],
      "stateMutability": "payable",
      "type": "function"
    },
    {
      "inputs": [
        {
          "internalType": "uint256",
          "name": "amount",
          "type": "uint256"
        }
      ],
      "name": "borrow",
      "outputs": [],
      "stateMutability": "nonpayable",
      "type": "function"
    },
    {
      "inputs": [
        {
          "internalType": "uint256",
          "name": "amount",
          "type": "uint256"
        }
      ],
      "name": "repayLoan",
      "outputs": [],
      "stateMutability": "nonpayable",
      "type": "function"
    },
    {
      "inputs": [],
      "name": "getBalance",
      "outputs": [
        {
          "internalType": "uint256",
          "name": "",
          "type": "uint256"
        }
      ],
      "stateMutability": "view",
      "type": "function"
    },
    {
      "inputs": [],
      "name": "getLoanBalance",
      "outputs": [
        {
          "internalType": "uint256",
          "name": "",
          "type": "uint256"
        }
      ],
      "stateMutability": "view",
      "type": "function"
    }
  ],
  "bytecode": "0x608060405234801561001057600080fd5b50336000806101000a81548173ffffffffffffffffffffffffffffffffffffffff021916908373ffffffffffffffffffffffffffffffffffffffff160217905550610b11806100606000396000f3fe60806040526004361061007b5760003560e01c80638da5cb5b1161004e5780638da5cb5b14610150578063ab7b1c891461017b578063c5ebeaec146101a4578063d0e30db0146101cd5761007b565b806312065fe01461008057806327e235e3146100ab57806373b4086b146100e85780637aa3261314610125575b600080fd5b34801561008c57600080fd5b506100956101d7565b6040516100a29190610655565b60405180910390f35b3480156100b757600080fd5b506100d260048036038101906100cd91906106d3565b61021e565b6040516100df9190610655565b60405180910390f35b3480156100f457600080fd5b5061010f600480360381019061010a91906106d3565b610236565b60405161011c9190610655565b60405180910390f35b34801561013157600080fd5b5061013a61024e565b6040516101479190610655565b60405180910390f35b34801561015c57600080fd5b50610165610295565b604051610172919061070f565b60405180910390f35b34801561018757600080fd5b506101a2600480360381019061019d9190610756565b6102b9565b005b3480156101b057600080fd5b506101cb60048036038101906101c69190610756565b61042d565b005b6101d56105a1565b005b6000600160003373ffffffffffffffffffffffffffffffffffffffff1673ffffffffffffffffffffffffffffffffffffffff16815260200190815260200160002054905090565b60016020528060005260406000206000915090505481565b60026020528060005260406000206000915090505481565b6000600260003373ffffffffffffffffffffffffffffffffffffffff1673ffffffffffffffffffffffffffffffffffffffff16815260200190815260200160002054905090565b60008054906101000a900473ffffffffffffffffffffffffffffffffffffffff1681565b600081116102fc576040517f08c379a00000000000000000000000000000000000000000000000000000000081526004016102f390610806565b60405180910390fd5b80600260003373ffffffffffffffffffffffffffffffffffffffff1673ffffffffffffffffffffffffffffffffffffffff16815260200190815260200160002054101561037e576040517f08c379a000000000000000000000000000000000000000000000000000000000815260040161037590610872565b60405180910390fd5b80600260003373ffffffffffffffffffffffffffffffffffffffff1673ffffffffffffffffffffffffffffffffffffffff16815260200190815260200160002060008282546103cd91906108c1565b9250508190555080600160003373ffffffffffffffffffffffffffffffffffffffff1673ffffffffffffffffffffffffffffffffffffffff168152602001908152602001600020600082825461042391906108f5565b9250508190555050565b60008111610470576040517f08c379a0000000000000000000000000000000000000000000000000000000008152600401610467906109bd565b60405180910390fd5b80600160003373ffffffffffffffffffffffffffffffffffffffff1673ffffffffffffffffffffffffffffffffffffffff1681526020019081526020016000205410156104f2576040517f08c379a00000000000000000000000000000000000000000000000000000000081526004016104e990610a29565b60405180910390fd5b80600260003373ffffffffffffffffffffffffffffffffffffffff1673ffffffffffffffffffffffffffffffffffffffff168152602001908152602001600020600082825461054191906108f5565b9250508190555080600160003373ffffffffffffffffffffffffffffffffffffffff1673ffffffffffffffffffffffffffffffffffffffff168152602001908152602001600020600082825461059791906108c1565b9250508190555050565b600034116105e4576040517f08c379a00000000000000000000000000000000000000000000000000000000081526004016105db90610abb565b60405180910390fd5b34600160003373ffffffffffffffffffffffffffffffffffffffff1673ffffffffffffffffffffffffffffffffffffffff168152602001908152602001600020600082825461063391906108f5565b92505081905550565b6000819050919050565b61064f8161063c565b82525050565b600060208201905061066a6000830184610646565b92915050565b600080fd5b600073ffffffffffffffffffffffffffffffffffffffff82169050919050565b60006106a082610675565b9050919050565b6106b081610695565b81146106bb57600080fd5b50565b6000813590506106cd816106a7565b92915050565b6000602082840312156106e9576106e8610670565b5b60006106f7848285016106be565b91505092915050565b61070981610695565b82525050565b60006020820190506107246000830184610700565b92915050565b6107338161063c565b811461073e57600080fd5b50565b6000813590506107508161072a565b92915050565b60006020828403121561076c5761076b610670565b5b600061077a84828501610741565b91505092915050565b600082825260208201905092915050565b7f52657061796d656e7420616d6f756e74206d757374206265206772656174657260008201527f207468616e203000000000000000000000000000000000000000000000000000602082015250565b60006107f0602783610783565b91506107fb82610794565b604082019050919050565b6000602082019050818103600083015261081f816107e3565b9050919050565b7f4e6f7420656e6f756768206c6f616e2062616c616e636520746f207265706179600082015250565b600061085c602083610783565b915061086782610826565b602082019050919050565b6000602082019050818103600083015261088b8161084f565b9050919050565b7f4e487b7100000000000000000000000000000000000000000000000000000000600052601160045260246000fd5b60006108cc8261063c565b91506108d78361063c565b9250828210156108ea576108e9610892565b5b828203905092915050565b60006109008261063c565b915061090b8361063c565b9250827fffffffffffffffffffffffffffffffffffffffffffffffffffffffffffffffff038211156109405761093f610892565b5b828201905092915050565b7f426f72726f7720616d6f756e74206d757374206265206772656174657220746860008201527f616e203000000000000000000000000000000000000000000000000000000000602082015250565b60006109a7602483610783565b91506109b28261094b565b604082019050919050565b600060208201905081810360008301526109d68161099a565b9050919050565b7f4e6f7420656e6f7567682062616c616e636520746f20626f72726f7700000000600082015250565b6000610a13601c83610783565b9150610a1e826109dd565b602082019050919050565b60006020820190508181036000830152610a4281610a06565b9050919050565b7f4465706f73697420616d6f756e74206d7573742062652067726561746572207460008201527f68616e2030000000000000000000000000000000000000000000000000000000602082015250565b6000610aa5602583610783565b9150610ab082610a49565b604082019050919050565b60006020820190508181036000830152610ad481610a98565b905091905056fea2646970667358221220ef1ca83fd51bc03e2c24e9724fab2983d884b21524bc6e0397813c27723a313b64736f6c634300080d0033",
  "immutableReferences": {},
  "source": "// SPDX-License-Identifier: MIT\r\npragma solidity ^0.8.0;\r\n\r\ncontract LendingContract {\r\n    address public owner;\r\n    mapping(address => uint256) public balances;\r\n    mapping(address => uint256) public loans;\r\n\r\n    constructor() {\r\n        owner = msg.sender;\r\n    }\r\n\r\n    modifier onlyOwner() {\r\n        require(msg.sender == owner, \"Only the owner can perform this action\");\r\n        _;\r\n    }\r\n\r\n    function deposit() external payable {\r\n        require(msg.value > 0, \"Deposit amount must be greater than 0\");\r\n        balances[msg.sender] += msg.value;\r\n    }\r\n\r\n    function borrow(uint256 amount) external {\r\n        require(amount > 0, \"Borrow amount must be greater than 0\");\r\n        require(balances[msg.sender] >= amount, \"Not enough balance to borrow\");\r\n        loans[msg.sender] += amount;\r\n        balances[msg.sender] -= amount;\r\n    }\r\n\r\n    function repayLoan(uint256 amount) external {\r\n        require(amount > 0, \"Repayment amount must be greater than 0\");\r\n        require(\r\n            loans[msg.sender] >= amount,\r\n            \"Not enough loan balance to repay\"\r\n        );\r\n        loans[msg.sender] -= amount;\r\n        balances[msg.sender] += amount;\r\n    }\r\n\r\n    function getBalance() external view returns (uint256) {\r\n        return balances[msg.sender];\r\n    }\r\n\r\n    function getLoanBalance() external view returns (uint256) {\r\n        return loans[msg.sender];\r\n    }\r\n}\r\n",
  "sourcePath": "C:\\Users\\shaan\\Documents\\bcdv4028\\contracts\\LendingContract.sol",
  "compiler": {
    "name": "solc",
    "version": "0.8.13+commit.abaa5c0e.Emscripten.clang"
  },
  "schemaVersion": "3.4.16",
  "updatedAt": "2023-10-02T18:18:57.320Z",
  "devdoc": {
    "kind": "dev",
    "methods": {},
    "version": 1
  },
  "userdoc": {
    "kind": "user",
    "methods": {},
    "version": 1
  }
}